:1000000035C000005AC0000058C0000056C00000B3
:1000100054C0000052C0000050C000004EC000009C
:100020004CC000000C949E0C48C0000046C000006C
:1000300044C00000A5C6000040C000003EC0000053
:100040003CC000003AC000000C94E40A0C94720C0E
:1000500034C0000032C0000030C000002EC00000DC
:100060002CC000002AC00000810D820D11241FBE8B
:10007000CFEFD8E0DEBFCDBF11E0A0E0B1E0EAEA0B
:10008000F9E202C005900D92A835B107D9F712E048
:10009000A8E5B1E001C01D92A73AB107E1F710E071
:1000A000CAE6D0E004C02297FE010E948313C8363E
:1000B000D107C9F734D20C94C914A2CF80910001A2
:1000C0008F5F80930001089580915F01909160019E
:1000D000892B09F454C080915D01882321F080911F
:1000E0005B01811105C060E070E080E090E045C0F8
:1000F00061E089E992E00E94490D9C01205D374052
:100100008091590190915A01F901E81BF90B309344
:100110005A012093590140915E01429FC001439FC3
:10012000900D112460915D0170E00E94F0129B011E
:1001300040915C014E9FC0014F9F900D1124609132
:100140005B0170E00E94F0128091010190E0260FA7
:10015000371F821793070CF49C0144275527481B2F
:10016000590B241735070CF49A01BC0137FF03C063
:10017000820F931F02C0621B730B0C9477090895C2
:1001800008C078D60E947F0990915801891301C058
:100190009BDF0E947F0990915801891791F3E92F05
:1001A000F0E0EF52FE4F80819F5F943618F49093F9
:1001B0005801089510925801089580915801815076
:1001C00008F001C083E6809358010895881F8827AE
:1001D000881F08958095881F8827881F0895CF93CA
:1001E000C82F87FD02C080E00EC083E391E023D6D4
:1001F00036D787E391E048D761E080E078D78C2F4D
:1002000055D7DBDF81E0CF91089566E080E491E08F
:100210000E94700C60E070E080E090E00E9477093E
:100220001092600110925F010895882361F080911F
:100230005F0190916001892B59F461E089E992E0B6
:100240000E94430D05C061E089E992E00E94360DED
:100250006AE089E992E00C94700C80E0E6CF81E0DE
:10026000E4CFACE0B0E0E7E3F1E00C945013809110
:100270005F0190916001892B39F0209159013091F3
:100280005A012053384F06C061E0CE0101960E940A
:10029000490D9C013C872B8762E0CE010B960E94A2
:1002A000700C2C96E2E00C946C13A2E0B0E0EBE54D
:1002B000F1E00C9450134AD29A83898362E0CE0114
:1002C00001960E94700C2296E2E00C946C13A2E05E
:1002D000B0E0EDE6F1E00C94501395D29A83898357
:1002E00062E0CE0101960E94700C2296E2E00C942E
:1002F0006C13CF9345DFC82F72DF811109C0CF3750
:1003000021F08C2F880F990B02C08FEF90E0C2D79D
:10031000CF910895CF9334DFC82F61DF811109C0D9
:10032000CF3721F08C2F880F990B02C08FEF90E010
:10033000D3D7CF910895CF9323DFC82F50DF8111FA
:100340000AC0CF3729F02EEFC202C001112402C02B
:1003500081E09FEF9FD7CF910895CF9311DFC82FF2
:100360003EDF81110AC0CF3729F02EEFC202C00153
:10037000112402C081E09FEFAFD7CF9108950F9372
:100380001F93CF93DF93FCDE082F29DF811116C066
:10039000C5E3D2E010E008C0153681F0F1DE8993A4
:1003A0001EDF81110BC01F5F1013F6CFE12FF0E0AD
:1003B000EB5CFD4F108285E392E03DD5DF91CF915C
:1003C0001F910F9108954BC61F93CF93DF93D8DEF3
:1003D000D82F05DF81110CC0C0E008C0D1DE182F76
:1003E000FEDE811105C0812FD1D5CF5FCD13F6CFB1
:1003F000DF91CF911F910895A1E0B0E0E2E0F2E03B
:100400000C944F13BDDE182FEADE811109C0B8DE4F
:10041000682F6983E4DE6981811102C0812F67D66C
:100420002196E3E00C946B130E94340D64EC7FEF93
:100430008CE390E05CD703C081E00E943C0D0E94F9
:100440001C0D6A3F710581059105B0F36CE370E006
:1004500084EC9FEF4CD703C081E00E943C0D0E94CA
:100460001C0D6E3E724081059105B0F364EC7FEF88
:100470008CE390E03CD703C081E00E943C0D0E94D9
:100480001C0D683E734081059105B0F360E070E09B
:1004900080E090E02CD761E085E391E00C94700C53
:1004A000A5E0B0E0E6E5F2E00C944C138E010F5F9E
:1004B0001F4F7E0186E0E80EF11C62DEF801819399
:1004C0008F018DDE81111DC00E151F05B1F78981C9
:1004D0008F3711F0880F01C08FEF809301018A815F
:1004E00080935E018B8180935D018C8180935C01A0
:1004F0008D8180935B0181E090E090936001809317
:100500005F012596E6E00C94681360E070E080E0FF
:1005100090E0EDD61092600110925F01089580ED99
:1005200097E00E947F0D81E0A3D499D560E072EC42
:1005300081E090E00E94940B64E681ED91E00E94DE
:10054000E20A1EDEC82F873B09F453C0FCF4813B4E
:1005500009F43FC074F48638C1F124F4813809F0FD
:100560005CC031C0873809F43BC0803B09F055C0FE
:100570002EC0843B91F124F4833B09F04EC02BC084
:10058000853B91F1863B09F048C031C08C3B09F4B2
:100590003AC04CF4893B89F174F18A3B81F18B3B81
:1005A00009F03BC02EC0853C09F433C034F4813CD3
:1005B00061F1823C09F031C02AC0863C61F1882398
:1005C00009F4BFCF2AC021DEBCCF47DEBACF6DDE33
:1005D000B8CF7DDEB6CFD3DEB4CF81E00E943C0D34
:1005E00081E090E03CDEADCF0E94400DAACF39DE25
:1005F000A8CF35D5A6CFE8DEA4CFFEDEA2CF14DF8C
:10060000A0CF4EDF9ECF81DF9CCF73DE9ACF93DEEB
:1006100098CF80DE96CFA1DE94CF21D587E491E0FC
:1006200033D561E080E063D58C2F40D58FE491E035
:1006300002D487CF882321F480917C008F7D03C072
:1006400080917C00806280937C00089580917C0082
:1006500090E025E0959587952A95E1F781700895BA
:1006600080917A0090E036E0959587953A95E1F78C
:1006700081700895EBDF882321F02091790030E02C
:1006800004C02091780030917900C901089580322A
:10069000B0F497E890937A0090917C00292F206421
:1006A000662311F0906C02C0922F9F77907E982B5A
:1006B00090937C0080917A00806480937A00089502
:1006C000A0E0B0E0E6E6F3E00C944A136B0160E0D2
:1006D000DEDFC6DF8823E9F7E601EE24FF24870189
:1006E00080917A00806480937A00BADF8823E9F7EA
:1006F000C1DFA0E0B0E0E80EF91E0A1F1B1F219722
:1007000079F7C6019695879520E4C216D10440F486
:100710008E0D9F1D6C2D70E00E94DC12CB010DC070
:10072000BC0180E090E06E0D7F1D801F911F96013F
:1007300040E050E00E940313C901CDB7DEB7E8E006
:100740000C94661387E064E170E0BACFFBCF0895A4
:10075000A3E0B0E0EEEAF3E00C944F13BC0180E0BC
:1007600090E0209102013091030140E050E00E94AE
:10077000C112182F69837A839B8368DF69817A812C
:100780009B81882371F09B01412F592FCA01B90128
:1007900061587F4F8F4F9F4F2FEF30E040E050E088
:1007A0000DC09B01412F592FCA01B90161507E4FE5
:1007B0008F4F9F4F2FEF33E040E050E00E94031334
:1007C000C9012396E3E00C946B137ADFC1CF1F932A
:1007D000CF93DF933BDF182F80E02CDF86E06AE0C9
:1007E00070E0F3DFEC01812F25DF9E01220F331F24
:1007F0002C0F3D1F2F5F3F4F36952795C901DF9185
:10080000CF911F910895E3CF089590916601E091F3
:100810006201F0916301992311F0849101C08081FC
:10082000282F21542A3110F4805E0895803271F40B
:100830002091620130916301A9014F5F5F4F509396
:100840006301409362012115310509F70895EF9284
:10085000FF92CF93DF93D9DFC0E0D0E01AC09E01B2
:10086000220F331F93E0CC0FDD1F9A95E1F7C20FE3
:10087000D31F992787FD9095C80FD91FE0978091C6
:1008800062019091630101969093630180936201EC
:10089000BCDF982F90539A3010F3CE01DF91CF91A7
:1008A000FF90EF90089510926F0083E28093800094
:1008B00081E1809381001092820080E197E2909321
:1008C00089008093880010928B0010928A00229AEF
:1008D0007894089580916101882321F481E08093C8
:1008E0006101E1CF0895A0E0B0E0E9E7F4E00C9405
:1008F00046138C015B01E42EEDDF1092040117FF1B
:1009000004C01F77AAE0FA2E02C0FF24F394C0901F
:100910008100DD2428EFC222DD2488EC3F2D389FA2
:10092000C001112480179107D8F4E80167E2013172
:10093000160710F0C0E1D7E2BE017695679580E01A
:1009400090E06058794687469F4F9E0140E050E016
:100950000E940313890181E090E0C82AD92A2CC0A3
:1009600098E2F99E902D112480E0892EE4014E0139
:10097000982EE4018016910608F4E801BE017695F0
:1009800067959E0140E050E08F2D8A3039F480E079
:1009900090E0605E734481449F4F06C080E090E029
:1009A00060537D4E8C4E9F4F0E940313890152E08D
:1009B000852E912CC828D9282F2D2A3039F4CE0124
:1009C00005966AE070E00E94DC12EB0133E0C83E5D
:1009D000D30779F0BE0180E090E0950140E050E05F
:1009E0000E94C11228EE33E040E050E00E9425133F
:1009F00001C0950110926F00C09281001093890090
:100A00000093880040918800509189006E2D6031DC
:100A100008F06FE080E190E0861B9109BA0102C006
:100A2000769567958A95E2F770938B0060938A00BC
:100A3000309369012093680186B38FEF86BB81E014
:100A400080936F00CDB7DEB7ECE00C9462139B018E
:100A50008F3F11F0442329F488EE93E0B90140E080
:100A600049C0813130F0582F5051503618F05FE5B1
:100A700001C050E0852F6CE00E94D012A82FB0E09A
:100A8000E4EFFFEFAE9FB001AF9F700DBE9F700D02
:100A90001124650F711D6C30710540F4FB01EE0FE0
:100AA000FF1FE25FFE4F6081718102C060E070E075
:100AB000873081F0082E02C0660F771F0A94E2F794
:100AC000823028F0CB0105966AE070E00CC06050DF
:100AD00070480BC0CB01B6E0880F991FBA95E1F7BB
:100AE000029665E070E00E94DC12403108F04FE0B1
:100AF000CB01B901F8CEA0E0B0E0E1E8F5E00C945C
:100B00004513B090050180916401882359F06091EC
:100B10006501662339F08FEF70E040E098DF1092B6
:100B2000650129C1C0ECDDE5AA24A39414E0712E6F
:100B300000ED17E0B4E0EB2EF12CA4EFCA2EA1E0FB
:100B4000DA2EFFE08F2E912C60DE20916201309131
:100B500063012F5F3F4F309363012093620186361C
:100B6000F1F18736CCF4823609F4AAC083367CF4DE
:100B70008E3349F18F333CF4813209F482C08C33D7
:100B800009F096C022C0813609F092C096C0843622
:100B900001F185360CF51BC08F3609F445C080374E
:100BA00044F48C3611F18D3659F1873609F080C046
:100BB00019C0843709F441C0863709F45CC0823714
:100BC00009F076C036C0B394BFCFBA94BDCFEE243F
:100BD00032C0EE2482E076C0EE2484E073C0EE24BE
:100BE00085E070C0EE2487E06DC031DEBC019093DB
:100BF000070180930601809108019091090134C09A
:100C000004DE8C3619F41092640104C0A0926401D1
:100C10001092650180916201909163010196909319
:100C200063018093620190CF12DEB82E809305019C
:100C30008BCFEE24E39480E045C009DEBC01CE01F9
:100C40000E94DC12CB01880F991F53E0660F771FBB
:100C50005A95E1F7860F971F909309018093080139
:100C600060910601709107010E94DC1270930B01E4
:100C700060930A0169CFEBDD90930D0180930C0125
:100C800063CF709205011093090100930801F0925F
:100C90000701E0920601D0920B01C0920A019092E6
:100CA0000D0180920C011092640144E0B42E4CCFEF
:100CB00010926301109262015EC0EE2489E002C0CE
:100CC000EE248BE09CE0B99EB02C1124B80E9DDD83
:100CD0008B3211F08332B1F4809162019091630103
:100CE00001969093630180936201B394F0CF809159
:100CF0006201909163010196909363018093620178
:100D0000BA9483DD8D3299F3C0910A01D0910B0121
:100D10008153883050F4C0910801D091090197DDCA
:100D2000BC01CE010E94DC12EB018E010BC0809150
:100D30006201909163010196909363018093620137
:100D4000C00FD11F1695079560DD8E3281F380911B
:100D50006401882339F0CE019695879580936501CB
:100D6000C81BD109EE2011F0BB24BA948B2DBE0113
:100D700040910C016CDECDB7DEB7EDE00C94611351
:100D80001F920F920FB60F9211242F933F934F9300
:100D90005F936F937F938F939F93AF93BF93EF93E3
:100DA000FF9380916801909169019C01215030402E
:100DB0003093690120936801009709F510926F0044
:100DC000789480918100887F81608093810080E1A8
:100DD00097E2909389008093880010928B00109284
:100DE0008A0081E080930401809162019091630107
:100DF000009729F080916701882309F47CDEFF9138
:100E0000EF91BF91AF919F918F917F916F915F9182
:100E10004F913F912F910F900FBE0F901F901895FB
:100E200010926F00909363018093620110926601AB
:100E30001092650160CEF4CF08958091040188235B
:100E400039F08091620190916301009709F053DEBF
:100E500081E020916201309163012115310509F48F
:100E600080E0089580936701882309F4E6CF089510
:100E7000F9CF0895E2CF089581E090E06F9364E0A8
:100E80006A95F1F76F910197C9F708950F931F9332
:100E9000CF93DF931AB157985A98289AC0E0D0E0C0
:100EA000EBDF5C9AE9DF09B15C98E6DF5C9AE4DF8E
:100EB0005C9807FF11C024969E0140E050E08091AD
:100EC0006E0190916F01A0917001B091710128178E
:100ED00039074A075B0720F31AB9DF91CF911F91B9
:100EE0000F91089565B190E0AC0141705070440FCE
:100EF000551F9C012670307053E0220F331F5A9506
:100F0000E1F7242B6D7C262B25B92BB188709070CE
:100F100034E0880F991F3A95E1F72F77282B2BB9EA
:100F20005C9AAADF5C98A8CFA2E0B0E0EAE9F7E01B
:100F30000C944B13182F4A8369835DD0A7DFF4B05C
:100F400005B1DAB0EBB0289869814A81662311F0C7
:100F50005A9A01C05A9884B1826384B9579A413031
:100F600021F0812F82958F70BDDF812F8F70BADFC6
:100F7000DAB8EBB8F4B805B92296E7E00C94671339
:100F800060E042E0D1CF61E042E0CECFFCCF0895F7
:100F900060E041E0C9CF80E197E2A0E0B0E080935B
:100FA0006E0190936F01A0937001B0937101529AFA
:100FB000209A549A8EE190E008D583E0E9DF86E03C
:100FC00090E003D583E0E4DF82E090E0FED483E0AC
:100FD000DFDF82E090E0F9D482E0DADF82E090E0C7
:100FE000F4D488E2CDDF88E0CBDF81E0C9DF86E0A2
:100FF000C7DF8CE0C5CF80917201882321F481E0A6
:1010000080937201C8CF089581E0BADF80916A01B0
:1010100090916B01009711F1A0E0B0E208C0E0915F
:101020006A01F0916B01E20FF31FB083AF5F2A2FCB
:1010300030E08091260190E001976091270170E0F7
:10104000869FA001879F500D969F500D1124241755
:1010500035072CF310926D0110926C010895D4CFD6
:101060000895EF92FF92CF93DF93E82EE7017E0180
:10107000F92EE70101C087DF89918823E1F7DF912D
:10108000CF91FF90EF900895ECCF08958A3010F43F
:10109000805D01C0895C77CF1F93182F82958F7078
:1010A000F5DF812F8F70F2DF1F910895F5CF08953E
:1010B000A5E0B0E0EEE5F8E00C944F13182F80E8BF
:1010C000898380EC8A8384E98B8384ED8C83FE01A1
:1010D000E60FF11D8181810F6D8352DF10936D0149
:1010E0006D8160936C012596E3E00C946B13E0CF67
:1010F0000895FC01118210821382128215821482DB
:101100001682683068F489E290E0918380838BE2F4
:1011100090E0938382838AE290E09583848311C078
:101120006E30C0F483E290E09183808385E290E0AA
:101130009383828384E290E09583848370E0685097
:10114000704081E090E002C0880F991F6A95E2F735
:10115000868308956531B8F486E290E091838083B8
:1011600088E290E09383828387E290E09583848392
:1011700070E06E50704081E090E002C0880F991FCF
:101180006A95E2F786830895FC01A481B581868182
:10119000662321F09C91982B9C9308959C918095B7
:1011A00089238C930895FC016F3F31F4A281B381B0
:1011B0008C91968189270CC0A281B3818681662398
:1011C00021F09C91982B9C9308959C918095892364
:1011D0008C930895A7E0B0E0E0EFF8E00C944D1395
:1011E000282FF62E8E010F5F1F4FC801622F81DF5F
:1011F000C8016F2DD8DFC80161E0C6DF2796E5E0A2
:101200000C946913E0EBF0E083EF8083808184BD70
:10121000E1EBF0E082E08083808185BDE4EBF0E0EB
:1012200010828081E3EBF0E08083808188BD88B507
:1012300087BD86E060E0CEDF85E060E0CBDF8BE05D
:1012400060E0C8DF83E060E0C5CF80917301882350
:1012500021F481E080937301D5CF0895CF93DF937C
:10126000EC01F3DFD7FF05C0D095C195DF4F81E0DA
:1012700001C080E0CF3FD10519F014F0CFEFD0E0EE
:10128000882319F018BCC7BD02C0C8BD17BCDF91C8
:10129000CF910895E3CF0895CF93DF93EC01D5DF8D
:1012A000D7FF05C0D095C195DF4F81E001C080E038
:1012B000CF3FD10519F014F0CFEFD0E0882329F00B
:1012C0001092B400C093B30004C0C093B400109255
:1012D000B300DF91CF910895DFCF0895CF93DF93CF
:1012E000EB01BCDFCE01D8DFDF91CF910895F6CFBF
:1012F0000895E1ECF0E080818F7D808308958091F6
:1013000076010895282F30E0F901EE0FFF1F43E02A
:10131000220F331F4A95E1F7E20FF31FEC58FE4FFF
:10132000408551854115510509F452C0282F30E000
:10133000F901EE0FFF1FB3E0220F331FBA95E1F75B
:10134000E20FF31FEC58FE4F7281282F30E0F901B5
:10135000EE0FFF1F93E0220F331F9A95E1F7E20F84
:10136000F31FEC58FE4F9481791790F5282F30E049
:10137000F901EE0FFF1FA3E0220F331FAA95E1F73B
:10138000E20FF31FEC58FE4F9281490F511DFA01F5
:101390006083282F30E0F901EE0FFF1F63E0220F7A
:1013A000331F6A95E1F7E20FF31FEC58FE4F92816D
:1013B0009F5F282F30E0F901EE0FFF1F43E0220F5F
:1013C000331F4A95E1F7E20FF31FEC58FE4F92836B
:1013D000282F30E0F901EE0FFF1FA3E0220F331F8B
:1013E000AA95E1F7E20FF31FEC58FE4F4281282F38
:1013F00030E0F901EE0FFF1F63E0220F331F6A9503
:10140000E1F7E20FF31FEC58FE4F9481491701F505
:10141000282F30E0F901EE0FFF1F43E0220F331FAA
:101420004A95E1F7E20FF31FEC58FE4F958199239F
:1014300079F0282F30E0F901EE0FFF1F83E0220F33
:10144000331F8A95E1F7E20FF31FEC58FE4F12822B
:1014500008951F93182F8091C1008F778093C1004A
:10146000212F30E0F901EE0FFF1F43E0220F331F61
:101470004A95E1F7E20FF31FEC58FE4F8085918506
:10148000009741F1212F30E0F901EE0FFF1F83E0BB
:10149000220F331F8A95E1F7E20FF31FEC58FE4F3E
:1014A0009281212F30E0F901EE0FFF1FA3E0220F00
:1014B000331FAA95E1F7E20FF31FEC58FE4F84812A
:1014C000981740F48091C00087FF04C06091C60067
:1014D000812F18DF212F30E0F901EE0FFF1F63E0AD
:1014E000220F331F6A95E1F7E20FF31FEC58FE4F0E
:1014F0008081882329F48091C10080688093C10095
:101500001F9108959091C1009F779093C100A82FDB
:10151000B0E0FD01EE0FFF1F93E0AA0FBB1F9A95ED
:10152000E1F7EA0FFB1FEC58FE4F71876087682FC9
:1015300070E0FB01EE0FFF1F53E0660F771F5A9517
:10154000E1F7E60FF71FEC58FE4F1282682F70E0AC
:10155000FB01EE0FFF1F93E0660F771F9A95E1F7EF
:10156000E60FF71FEC58FE4F4483482F50E0FA0176
:10157000EE0FFF1FA3E0440F551FAA95E1F7E40FFC
:10158000F51FEC58FE4F2583282F30E0F901EE0FB0
:10159000FF1F63E0220F331F6A95E1F7E20FF31F8D
:1015A000EC58FE4F8081882329F48091C100806827
:1015B0008093C100089521E0A5CF9C01462F80E0D3
:1015C000B901F9CFFACF08951F920F920FB60F927B
:1015D00011242F933F934F935F936F937F938F9338
:1015E0009F93AF93BF93EF93FF936091C60080E00A
:1015F00089DEFF91EF91BF91AF919F918F917F9184
:101600006F915F914F913F912F910F900FBE0F906F
:101610001F901895282F30E0F901EE0FFF1F93E07F
:10162000220F331F9A95E1F7E20FF31FEC58FE4F9C
:101630002681378121153105B9F1282F30E0F901D4
:10164000EE0FFF1FA3E0220F331FAA95E1F7E20F71
:10165000F31FEC58FE4F4181282F30E0F901EE0FC7
:10166000FF1F63E0220F331F6A95E1F7E20FF31FBC
:10167000EC58FE4F93814917B8F4282F30E0F90158
:10168000EE0FFF1F43E0220F331F4A95E1F7E20FF1
:10169000F31FEC58FE4F8081882331F48091C10004
:1016A00080628093C100089524CE282F30E0F90194
:1016B000EE0FFF1F53E0220F331F5A95E1F7E20FA1
:1016C000F31FEC58FE4F9081992311F498E901C063
:1016D00098E19093C1009EDF78940895EF92FF9275
:1016E0000F931F937B018C0180E0DFDFC801B701FE
:1016F00028EF3FEF4FEF5FEF44D76050734D8E4CB4
:101700009E4FA8019701E4E0220F331F441F551F8D
:10171000EA95D1F778D73093C5002093C4001F9184
:101720000F91FF90EF900895D9CF0895282F30E0C2
:10173000F901EE0FFF1F73E0220F331F7A95E1F7D7
:10174000E20FF31FEC58FE4F4681578141155105BA
:1017500009F458C0282F30E0F901EE0FFF1F93E085
:10176000220F331F9A95E1F7E20FF31FEC58FE4F5B
:101770006181282F30E0F901EE0FFF1FA3E0220F57
:10178000331FAA95E1F7E20FF31FEC58FE4F938148
:101790006917C0F59091C00095FF34C0282F30E044
:1017A000F901EE0FFF1F63E0220F331F6A95E1F787
:1017B000E20FF31FEC58FE4F9181490F511DFA01C2
:1017C00090819093C600282F30E0F901EE0FFF1FA3
:1017D00093E0220F331F9A95E1F7E20FF31FEC58C5
:1017E000FE4F91819F5F282F30E0F901EE0FFF1F20
:1017F000A3E0220F331FAA95E1F7E20FF31FEC5885
:10180000FE4F918307CFA1E0B0E0E8E0FCE048C7DD
:1018100089836FDD89818ADF2196E2E05DC780E000
:10182000F2DF80E016CEA4E7B1E0282F30E0F90126
:10183000EE0FFF1F93E0220F331F9A95E1F7E20F9F
:10184000F31FEA0FFB1F77836683282F30E0F9012F
:10185000EE0FFF1F93E0220F331F9A95E1F7E20F7F
:10186000F31FEA0FFB1F1182282F30E0F901EE0F62
:10187000FF1F63E0220F331F6A95E1F7E20FF31FAA
:10188000EA0FFB1F4383C6CE1F93182FCCDF01C086
:10189000C6DF212F30E0F901EE0FFF1FA3E0220F7A
:1018A000331FAA95E1F7E20FF31FEC58FE4F918129
:1018B000212F30E0F901EE0FFF1F63E0220F331FED
:1018C0006A95E1F7E20FF31FEC58FE4F83819817FA
:1018D000F9F61F9108959C01462F80E0B901D4CFFD
:1018E000FACF08951F920F920FB60F9211242F93E3
:1018F0003F934F935F936F937F938F939F93AF9398
:10190000BF93EF93FF9380E011DFFF91EF91BF91C1
:10191000AF919F918F917F916F915F914F913F9187
:101920002F910F900FBE0F901F9018956F9364E04A
:101930006A95F1F76F910197C9F708952F928F93E8
:101940009F932FB680917F019091800101968093A3
:101950007F019093800190E080918101891F8093A5
:101960008101909187019C5F90938701809186010E
:1019700080519742C0F090938701809386018091B7
:10198000820190918301019680938201909383015B
:1019900090E080918401891F80938401809185016A
:1019A000891F809385012FBE9F918F912F9018954D
:1019B000CF93DF93EC0104C088EE93E0B7DF21976B
:1019C0002097D1F7DF91CF910895F2CF0895E0E706
:1019D000F0E080818E7F8083A0EBB0E08C9183600B
:1019E0008C93A1EBB0E08C91807F8C938C91826082
:1019F0008C93B89A808181608083789408958091D7
:101A00008801882321F481E080938801E0CF089544
:101A1000F6DFE0E7F0E080818E7F80832091820115
:101A200030918301409184015091850180818160D2
:101A30008083B901CA010895EBCF0895E0DFE0E7A4
:101A4000F0E080818E7F808310928201109283016A
:101A500010928401109285011092870110928601E4
:101A60008081816080830895E9CF08959C01462F8D
:101A700089E891E0B9019BC2682F89E891E045C5EA
:101A800089E891E09BC09C01462F89E891E0B9016B
:101A9000E4C29C01462F89E891E0B90120E09EC391
:101AA0000F93DF93CF9300D000D00F92CDB7DEB766
:101AB0009C01962FDE011196E8E2F1E085E00190AD
:101AC0000D928150E1F7BE016F5F7F4F992329F09E
:101AD00089E891E045E00FEF04C089E891E045E036
:101AE00003E1ACD089E891E042D0A8DF0F900F90DD
:101AF0000F900F900F90CF91DF910F91089560E0BC
:101B0000CFCF089589E891E022C56F9364E06A958C
:101B1000F1F76F910197C9F70895A7E0B0E0E2E906
:101B2000FDE0BCC58C01FC0111821082138212827F
:101B30001582148217821682613118F080E1808745
:101B400002C0FC016087F801208BCE010196642F52
:101B5000D0DA8F81F80181878B819C81938782877E
:101B60008D819E81958784872796E4E0B3C5FC012B
:101B7000A485B585109771F08C919185892B8C93F4
:101B8000A285B3859C918185809589238C9388EC6F
:101B900090E0BBCF0895FC01A485B585109769F04E
:101BA0008C919185892B8C93A285B3858C9191859D
:101BB000892B8C9388EC90E0A8CF0895FC0120E05D
:101BC00039C080819181009759F0A22FB0E0AA0F0F
:101BD000BB1FA80FB91F8685978511969C938E937E
:101BE00084819581009759F0A22FB0E0AA0FBB1F06
:101BF000A80FB91F8685978511969C938E93828135
:101C00009381009749F0A22FB0E0AA0FBB1FA80F45
:101C1000B91F11961C921E9286819781009749F0F8
:101C2000A22FB0E0AA0FBB1FA80FB91F11961C92DC
:101C30001E922F5F8085281720F20895A7E0B0E05C
:101C4000E3E2FEE01DC57C011B01642F3901402F3A
:101C500020E063DF97012F5B3F4FF9011082D7012E
:101C6000AE5BBF4F1C92C7018D5B9F4FFC01108282
:101C7000F7017786668666242E010894411C511C64
:101C80006C015D01490128C0062D10E0F101E00F53
:101C9000F11FC20160812DDA2F81F701E00FF11FE2
:101CA000218B89819A81F801EE0FFF1FEE0DFF1D38
:101CB00092A381A38332910511F4F40109C0863205
:101CC000910511F4F50104C08932910521F4F60162
:101CD0008081822B80836394F70180856816A0F24F
:101CE0002796E2E1E9C4A0E0B0E0E8E7FEE0CDC479
:101CF000EC015B01FC01EF5BFF4F9080FC01EE5BB0
:101D0000FF4F8080FC01ED5BFF4F708080E009C0D9
:101D1000E82FF0E0EE0FFF1FEA0DFB1D118210828D
:101D20008F5F98858917A0F384B121E4E22EF12C0E
:101D3000EC0EFD1ED7019C91892B84B987B18E01D1
:101D40000E5B1F4FF8019081892B87B98AB193E40C
:101D5000C92ED12CCC0EDD1ED6019C91892B8AB9BF
:101D600085B1F7019081892B85B988B1D8019C9103
:101D7000892B88B98BB1F6019081892B8BB98AE0C8
:101D800090E0C3DE94B1D7018C918095892384B90A
:101D900097B1F80180818095892387B99AB1D601DE
:101DA0008C91809589238AB995B1F70180818095BE
:101DB000892385B998B1D8018C918095892388B9F8
:101DC0009BB1F6018081809589238BB9C090B000CA
:101DD000E090B1008091B00083608093B00082E019
:101DE0008093B1000091B20080E090E039C0209172
:101DF000B200201B820F911D020FF3B0F91409F0FD
:101E00004DC096B0981409F049C029B1271509F0C2
:101E100045C024C0212F30E0A901440F551FF50112
:101E2000E40FF51F608171816115710599F44C0F04
:101E30005D1FDA0191964D915C919297DA014C9178
:101E40002C0F3D1FD90151962C915197422311F42B
:101E5000918380831F5F28851217E0F2892C9F2CC5
:101E60002E853F858217930710F2C092B000E09252
:101E7000B10020E00FC0E22FF0E0EE0FFF1FEA0DEF
:101E8000FB1D80819181009721F48E859F85918330
:101E900080832F5F8885281770F305C0F3B096B054
:101EA00079B010E0D8CFCDB7DEB7EDE00AC4EF923D
:101EB000FF920F931F93CF93DF93FC019B0100913F
:101EC0007C0010917A00E7B0F8B080917A0086FD2E
:101ED000FCCF80E00AC0A82FB0E0AA0FBB1FA20F62
:101EE000B31F11961C921E928F5F9085891798F3ED
:101EF00097B182A18095892387B998B182A18095F5
:101F0000892388B987E880937A0070E029C0DF01CF
:101F1000A60FB11D51968C915197806480937C00DF
:101F200080917A00806480937A0080917A0086FDA7
:101F3000FCCFA62FB0E0AA0FBB1FA20FB31F40918A
:101F40007800509179008D919C911197840F951F85
:101F500011969C938E936F5F80856817C0F27F5FA8
:101F600081A1781710F460E0F7CF40E013C0C42FD0
:101F7000D0E0CC0FDD1FC20FD31F61A170E0CB01F9
:101F800095958795A881B9818A0F9B1F15D3798371
:101F900068834F5F8085481750F300937C0010934F
:101FA0007A00F8B8E7B8CDB7DEB7E6E091C3A0E2B3
:101FB000B0E0ECEDFFE06FC38C017B01D42E842FE9
:101FC0008150823010F4C801E6DDD80150968C9122
:101FD0005097882371F4C801B70185DEC801C7DDB9
:101FE000BD2DB230B9F5C801BE016F5F7F4F7BDEFA
:101FF0000DC0C801B7015BDFC801B9DDED2DE230CE
:1020000049F5C801BE016F5F7F4F51DF60E0AE014F
:102010004F5F5F4F1BC0862F90E0880F991FF7011D
:10202000E80FF91F840F951FD8011E962D913C9142
:102030001F97DC018D919C911197281B390B808192
:102040009181820F931F918380836F5FF801808558
:10205000681708F3A096E7E03AC38F929F92AF9279
:10206000BF92CF92DF92FF920F931F93CF93DF9394
:10207000EC01C62E072FF42E423011F0FF2051F450
:102080008C819D81009709F49DC08E819F8100976E
:1020900009F498C08F2D8150823050F48881998145
:1020A000009709F48FC08A819B81009709F48AC048
:1020B000CE016C2D702F4F2D7ADFAC2CB02E00E0AE
:1020C00010E08824992478C08F2D813059F4EA815A
:1020D000FB81E00FF11FC080D180E881F981E00F22
:1020E000F11F0DC08C819D81FF2061F4EE81FF8185
:1020F000E00FF11FC080D180800F911FFC01408153
:1021000051812BC0800F911FFC0180819181E8815A
:10211000F981E00FF11F40815181CE84DF84841763
:10212000950710F4A60104C04C0D5D1D481B590B0A
:10213000EE81FF81E00FF11F80819181EA81FB81B7
:10214000E00FF11F20813181CE84DF848217930755
:1021500020F0C20ED31EC81AD90AC41AD50AC1F07B
:10216000F5016081718180E090E09A0140E050E0EB
:10217000621B730B840B950B28EE33E040E050E0BC
:1021800000D2960140E050E060D237FD0AC002C0A4
:1021900020E030E0F3E0293E3F072CF028EE33E06A
:1021A00002C020E030E0F501219331935F010894F3
:1021B000811C911C0E5F1F4F888590E08816990640
:1021C0000CF482CFDF91CF911F910F91FF90DF90A0
:1021D000CF90BF90AF909F908F900895A5E0B0E012
:1021E000E3EFF0E14DC24C01C62EE72E2D8335DF23
:1021F000D40118964C901897DE2C642D70E080E086
:1022000090E028EE33E040E050E0BBD169837A8370
:102210008B839C83EE24FF24870166247724882403
:1022200099245401552435C0F6013081218142E0C2
:10223000242E312CC20CD31CC901492F582F1A014E
:102240002D81222329F088EE93E0821993091C0145
:1022500099EC291631042CF4A3E32A1631048CF0EE
:1022600002C055245394B101882777FD8095982F9B
:10227000A801970186D1860E971EA81EB91E620C72
:10228000731C88EE93E0A0E0B0E0E80EF91E0A1F90
:102290001B1F89819A81AB81BC81E816F9060A0768
:1022A0001B0711F65520F1F45524089441085108F4
:1022B00024EF31E0429EC001439E900D529E900D4E
:1022C00011242091CD013091CE0128173907ACF0AF
:1022D00088EE93E0489E9001499E300D589E300D47
:1022E00011240DC0930140E050E0C501B4018BD131
:1022F0002093CD013093CE0102C020E030E0C9012F
:102300002596E2E1D9C1A7E6B0E0E8E8F1E1B8C17D
:102310008C014B016A01A6962FAFA697DA018D9129
:102320009C9111970097E1F4F801808590E0880F67
:10233000991FF9D1D60111969C938E93009709F4B9
:10234000E0C0FC0180E090E003C011921192019680
:10235000D80118962C91189730E082179307ACF3A8
:10236000F40180819181009789F0EE24FF245E01C1
:102370000894A11CB11CB1E46B2E712C6C0E7D1E57
:10238000A1E24A2E512C4C0E5D1E22C0D801189697
:102390008C9190E0880F991FC6D1F40191838083BE
:1023A000009709F4AEC0FC0180E090E0D80107C0BE
:1023B0001E962D913C911F9721933193019618966B
:1023C0002C91189730E08217930794F38D01CDCFAD
:1023D000C801B501A6964FADA697E9DDD8011896BC
:1023E0008C911897E82FF0E0A596FFAFEEAFA59778
:1023F0001301F501A3965FAE4EAEA397930140E0A3
:1024000050E0A8965FAE4EAEA89737C0E114F10435
:1024100061F0A896AEADBFADA8976D917C91119774
:10242000808191816817790760F480819181A896F5
:10243000AEADBFADA89711969C938E93E114F104B5
:1024400049F0D9016D917C91119780819181861716
:10245000970728F480819181D9018D939C934F5FD8
:102460005F4F2E5F3F4F3296A8968EAD9FADA897D7
:102470000296A8969FAF8EAFA897A596AEADBFADBA
:10248000A5974A175B0714F20894E11CF11CBAE007
:10249000EB16F10409F09CCF80E090E02CC0F10134
:1024A000419151911F01BC01660F771FD601ED913B
:1024B000FC911197E60FF71F208131812417350712
:1024C00010F451834083A396EEADFFADA3974191E5
:1024D0005191A396FFAFEEAFA397D401ED91FC917C
:1024E0001197E60FF71F208131814217530710F42F
:1024F000518340830196F801208530E082179307CD
:1025000074F2C959DF4FE2E1D7C01F93CF93DF9335
:10251000EC01162F862F8150823050F4AE014E5FB1
:102520005F4FCE01BE0121E0EEDE123019F00BC08C
:10253000662349F4BE016C5F7F4FAE014A5F5F4F77
:10254000CE0120E0E0DEDF91CF911F910895CF937F
:10255000DF93EC018A819B81009709F07FD18E8106
:102560009F81009709F07AD188819981009709F0BD
:1025700075D18C819D81009709F070D1DF91CF9149
:102580000895DB018F939F93B2D0BF91AF91A29F2B
:10259000800D911DA39F900DB29F900D1124089561
:1025A000991B79E004C0991F961708F0961B881FA5
:1025B0007A95C9F780950895AA1BBB1B51E107C006
:1025C000AA1FBB1FA617B70710F0A61BB70B881FC3
:1025D000991F5A95A9F780959095BC01CD01089552
:1025E00097FB072E16F4009406D077FD08D0E4DFA1
:1025F00007FC05D03EF4909581959F4F0895709506
:1026000061957F4F0895A1E21A2EAA1BBB1BFD0105
:102610000DC0AA1FBB1FEE1FFF1FA217B307E407C1
:10262000F50720F0A21BB30BE40BF50B661F771F19
:10263000881F991F1A9469F76095709580959095F9
:102640009B01AC01BD01CF010895052E97FB16F447
:10265000009406D057FD0CD0D6DF07FC09D07EF4DD
:1026600090958095709561957F4F8F4F9F4F0895FE
:1026700050954095309521953F4F4F4F5F4F0895AE
:102680002F923F924F925F926F927F928F929F9282
:10269000AF92BF92CF92DF92EF92FF920F931F9370
:1026A000CF93DF93CDB7DEB7CA1BDB0B0FB6F89421
:1026B000DEBF0FBECDBF09942A88398848885F8461
:1026C0006E847D848C849B84AA84B984C884DF80D2
:1026D000EE80FD800C811B81AA81B981CE0FD11DB6
:1026E0000FB6F894DEBF0FBECDBFED0108950FD039
:1026F000A59F900DB49F900DA49F800D911D112456
:102700000895EE0FFF1F0590F491E02D0994A29F0C
:10271000B001B39FC001A39F01D0B29F700D811D76
:102720001124911D08950F931F93CF93DF9382304F
:10273000910510F482E090E0E091A502F091A602EC
:1027400020E030E0C0E0D0E023C040815181481754
:102750005907A8F04817590761F48281938120979F
:1027600019F09B838A832EC09093A6028093A502C2
:1027700029C02115310529F04217530710F0A9018E
:1027800002C0BE01DF0102811381EF019A01F8014D
:102790003097D9F62115310509F1281B390B243062
:1027A000310590F412968D919C91139761157105E6
:1027B00021F0FB019383828304C09093A60280934F
:1027C000A502FD01329644C0FD01E20FF31F819383
:1027D0009193225031092D933C933AC02091A3024A
:1027E0003091A402232B41F420912F01309130012C
:1027F0003093A4022093A30220912D0130912E0149
:102800002115310541F42DB73EB74091310150916A
:102810003201241B350BE091A302F091A402E217D0
:10282000F307A0F42E1B3F0B2817390778F0AC01F3
:102830004E5F5F4F2417350748F04E0F5F1F5093D0
:10284000A4024093A3028193919302C0E0E0F0E0E0
:10285000CF01DF91CF911F910F910895EF92FF92D9
:102860000F931F93CF93DF93009709F48EC0DC0181
:10287000129713961C921E921297E090A502F09068
:10288000A602E114F10489F42D913C911197280FCF
:10289000391F8091A3029091A4028217930789F5B2
:1028A000B093A402A093A30270C0E70120E030E03F
:1028B00001C0EA01CA17DB0738F44A815B819E0137
:1028C00041155105B1F722C0AC0142505109FA013E
:1028D000D383C28300811181BC01600F711F6C170B
:1028E0007D0761F468817981600F711F6E5F7F4F92
:1028F000718360836A817B817383628321153105D3
:1029000029F4B093A602A093A5023FC0F901B383B6
:10291000A283E90149915991C40FD51FAC17BD0796
:1029200071F4DC019E918E91840F951F0296918324
:10293000808312968D919C91139793838283A0E05C
:10294000B0E002C0D7017C01F7018281938100973A
:10295000C9F7C701029620813181820F931F209110
:10296000A3023091A4022817390779F4109729F4AB
:102970001092A6021092A50204C013961C921E92F9
:102980001297F092A402E092A302CDB7DEB7E6E080
:102990009FCE10E0CAE6D0E003C0FE01B4DE22966E
:0A29A000CC36D107D1F7F894FFCF31
:1029AA0001FF881301040400D007F4010F009C0101
:1029BA00B501CF01EA0107022602470269028E0227
:1029CA00B502DE020A0302080E0F1011120000A758
:1029DA000220006F33630042616420646174610005
:1029EA00337069312E310042616420636D64006F77
:0829FA00376C31366372630093
:00000001FF
